:020000020000FC
:020000007EC0C0
:0200040018954D
:02000800189549
:02000C00189545
:0200100069C0C5
:0200140018953D
:020018006AC0BC
:02001C00189535
:020020006BC0B3
:0200240018952D
:02002800189529
:02002C00189525
:02003000189521
:0200340018951D
:02003800189519
:02003C00189515
:02004000189511
:0200440018950D
:02004800189509
:02004C00189505
:02005000189501
:020054001895FD
:020058001895F9
:02005C001895F5
:020060001895F1
:020064001895ED
:020068001895E9
:02006C001895E5
:020070001895E1
:020074001895DD
:020078001895D9
:02007C001895D5
:020080001895D1
:020084001895CD
:020088001895C9
:02008C001895C5
:020090001895C1
:020094001895BD
:020098001895B9
:02009C001895B5
:0200A0001895B1
:0200A4001895AD
:0200A8001895A9
:0200AC001895A5
:0200B0001895A1
:0200B40018959D
:0200B800189599
:0200BC00189595
:0200C000189591
:0200C40018958D
:0200C800189589
:0200CC00189585
:0200D000189581
:0200D40018957D
:0200D800189579
:0200DC00189575
:0200E000189571
:1000E400193911F031E068941895103011F03FEF90
:1000F40068941895E8941127189580E090E076E0CC
:100104005FEF0FEF0DBF01E20EBF08EA0DBB00E881
:100114000093690008E800936A00789400E00AB943
:100124000DB954B985B9112716F015B9FDCFE89466
:10013400130F20F0170FC5F3171BF6CFADF3171BE2
:02014400F3CFF7
:00000001FF
