:020000020000FC
:020000008AC0B4
:0200040018954D
:02000800189549
:02000C00189545
:02001000189541
:0200140018953D
:02001800189539
:02001C00189535
:02002000189531
:0200240018952D
:02002800189529
:02002C00189525
:02003000189521
:0200340018951D
:02003800189519
:02003C00189515
:02004000189511
:0200440018950D
:02004800189509
:02004C00189505
:02005000189501
:020054001895FD
:020058001895F9
:02005C0056C08C
:020060001895F1
:020064001895ED
:020068001895E9
:02006C001895E5
:020070001895E1
:020074001895DD
:020078001895D9
:02007C001895D5
:020080001895D1
:020084001895CD
:020088001895C9
:02008C001895C5
:020090001895C1
:020094001895BD
:020098001895B9
:02009C001895B5
:0200A0001895B1
:0200A4001895AD
:0200A8001895A9
:0200AC001895A5
:0200B0001895A1
:0200B40018959D
:0200B800189599
:0200BC00189595
:0200C000189591
:0200C40018958D
:0200C800189589
:0200CC00189585
:0200D000189581
:0200D40018957D
:0200D800189579
:0200DC00189575
:0200E000189571
:1000E400E8945430B1F08BB9000F1695782F5395DE
:1000F40086BD922F0AC0700F710F7BB9E89486BD3C
:10010400932F689402C09A9509F0189586BD46F31A
:10011400F2CF20E83FEF922FAFEFADBFA1E2AEBF29
:10012400E89400E118E06FEF80E050E0782F6AB9BE
:100134008BB9A1E0A0936E00A2E0A5BDA0E0A6BD8E
:0601440078947BB9FECFA8
:00000001FF
